{
  "_format": "hh-sol-artifact-1",
  "contractName": "StakingERC721EndWithdraw",
  "sourceName": "contracts/StakingERC721EndWithdraw.sol",
  "abi": [
    {
      "inputs": [],
      "name": "AlreadyStaked",
      "type": "error"
    },
    {
      "inputs": [],
      "name": "AlreadyWithdrawn",
      "type": "error"
    },
    {
      "inputs": [],
      "name": "MaxParticipantsReached",
      "type": "error"
    },
    {
      "inputs": [],
      "name": "NFTOwnershipNotTransferred",
      "type": "error"
    },
    {
      "inputs": [],
      "name": "NotAcceptedNFT",
      "type": "error"
    },
    {
      "inputs": [],
      "name": "PerAddressLimitReached",
      "type": "error"
    },
    {
      "inputs": [],
      "name": "StakingEnded",
      "type": "error"
    },
    {
      "inputs": [],
      "name": "StakingNotEnded",
      "type": "error"
    },
    {
      "anonymous": false,
      "inputs": [
        {
          "indexed": false,
          "internalType": "address",
          "name": "previousAdmin",
          "type": "address"
        },
        {
          "indexed": false,
          "internalType": "address",
          "name": "newAdmin",
          "type": "address"
        }
      ],
      "name": "AdminChanged",
      "type": "event"
    },
    {
      "anonymous": false,
      "inputs": [
        {
          "indexed": true,
          "internalType": "address",
          "name": "beacon",
          "type": "address"
        }
      ],
      "name": "BeaconUpgraded",
      "type": "event"
    },
    {
      "anonymous": false,
      "inputs": [
        {
          "indexed": false,
          "internalType": "uint8",
          "name": "version",
          "type": "uint8"
        }
      ],
      "name": "Initialized",
      "type": "event"
    },
    {
      "anonymous": false,
      "inputs": [
        {
          "indexed": true,
          "internalType": "address",
          "name": "previousOwner",
          "type": "address"
        },
        {
          "indexed": true,
          "internalType": "address",
          "name": "newOwner",
          "type": "address"
        }
      ],
      "name": "OwnershipTransferred",
      "type": "event"
    },
    {
      "anonymous": false,
      "inputs": [
        {
          "indexed": false,
          "internalType": "address",
          "name": "who",
          "type": "address"
        },
        {
          "indexed": false,
          "internalType": "uint256",
          "name": "tokenId",
          "type": "uint256"
        }
      ],
      "name": "Staked",
      "type": "event"
    },
    {
      "anonymous": false,
      "inputs": [
        {
          "indexed": true,
          "internalType": "address",
          "name": "implementation",
          "type": "address"
        }
      ],
      "name": "Upgraded",
      "type": "event"
    },
    {
      "anonymous": false,
      "inputs": [
        {
          "indexed": false,
          "internalType": "address",
          "name": "who",
          "type": "address"
        },
        {
          "indexed": false,
          "internalType": "uint256",
          "name": "tokenId",
          "type": "uint256"
        }
      ],
      "name": "Withdrawn",
      "type": "event"
    },
    {
      "inputs": [],
      "name": "endStaking",
      "outputs": [],
      "stateMutability": "nonpayable",
      "type": "function"
    },
    {
      "inputs": [
        {
          "internalType": "address",
          "name": "_addr",
          "type": "address"
        }
      ],
      "name": "getUserStakes",
      "outputs": [
        {
          "internalType": "uint256[]",
          "name": "stakes",
          "type": "uint256[]"
        }
      ],
      "stateMutability": "view",
      "type": "function"
    },
    {
      "inputs": [
        {
          "internalType": "address",
          "name": "_nftContractAddr",
          "type": "address"
        },
        {
          "internalType": "uint16",
          "name": "_maxParticipants",
          "type": "uint16"
        },
        {
          "internalType": "uint16",
          "name": "_perAddressLimit",
          "type": "uint16"
        }
      ],
      "name": "initialize",
      "outputs": [],
      "stateMutability": "nonpayable",
      "type": "function"
    },
    {
      "inputs": [],
      "name": "maxParticipants",
      "outputs": [
        {
          "internalType": "uint16",
          "name": "",
          "type": "uint16"
        }
      ],
      "stateMutability": "view",
      "type": "function"
    },
    {
      "inputs": [],
      "name": "nftContractAddr",
      "outputs": [
        {
          "internalType": "address",
          "name": "",
          "type": "address"
        }
      ],
      "stateMutability": "view",
      "type": "function"
    },
    {
      "inputs": [
        {
          "internalType": "address",
          "name": "",
          "type": "address"
        },
        {
          "internalType": "address",
          "name": "_from",
          "type": "address"
        },
        {
          "internalType": "uint256",
          "name": "_tokenId",
          "type": "uint256"
        },
        {
          "internalType": "bytes",
          "name": "",
          "type": "bytes"
        }
      ],
      "name": "onERC721Received",
      "outputs": [
        {
          "internalType": "bytes4",
          "name": "",
          "type": "bytes4"
        }
      ],
      "stateMutability": "nonpayable",
      "type": "function"
    },
    {
      "inputs": [],
      "name": "owner",
      "outputs": [
        {
          "internalType": "address",
          "name": "",
          "type": "address"
        }
      ],
      "stateMutability": "view",
      "type": "function"
    },
    {
      "inputs": [],
      "name": "perAddressLimit",
      "outputs": [
        {
          "internalType": "uint16",
          "name": "",
          "type": "uint16"
        }
      ],
      "stateMutability": "view",
      "type": "function"
    },
    {
      "inputs": [],
      "name": "proxiableUUID",
      "outputs": [
        {
          "internalType": "bytes32",
          "name": "",
          "type": "bytes32"
        }
      ],
      "stateMutability": "view",
      "type": "function"
    },
    {
      "inputs": [],
      "name": "renounceOwnership",
      "outputs": [],
      "stateMutability": "nonpayable",
      "type": "function"
    },
    {
      "inputs": [],
      "name": "stakingEnded",
      "outputs": [
        {
          "internalType": "bool",
          "name": "",
          "type": "bool"
        }
      ],
      "stateMutability": "view",
      "type": "function"
    },
    {
      "inputs": [
        {
          "internalType": "uint256",
          "name": "",
          "type": "uint256"
        }
      ],
      "name": "tokenStake",
      "outputs": [
        {
          "internalType": "address",
          "name": "owner",
          "type": "address"
        },
        {
          "internalType": "uint256",
          "name": "stakedTime",
          "type": "uint256"
        },
        {
          "internalType": "uint256",
          "name": "withdrawTime",
          "type": "uint256"
        }
      ],
      "stateMutability": "view",
      "type": "function"
    },
    {
      "inputs": [],
      "name": "totalParticipants",
      "outputs": [
        {
          "internalType": "uint16",
          "name": "",
          "type": "uint16"
        }
      ],
      "stateMutability": "view",
      "type": "function"
    },
    {
      "inputs": [
        {
          "internalType": "address",
          "name": "newOwner",
          "type": "address"
        }
      ],
      "name": "transferOwnership",
      "outputs": [],
      "stateMutability": "nonpayable",
      "type": "function"
    },
    {
      "inputs": [
        {
          "internalType": "address",
          "name": "newImplementation",
          "type": "address"
        }
      ],
      "name": "upgradeTo",
      "outputs": [],
      "stateMutability": "nonpayable",
      "type": "function"
    },
    {
      "inputs": [
        {
          "internalType": "address",
          "name": "newImplementation",
          "type": "address"
        },
        {
          "internalType": "bytes",
          "name": "data",
          "type": "bytes"
        }
      ],
      "name": "upgradeToAndCall",
      "outputs": [],
      "stateMutability": "payable",
      "type": "function"
    },
    {
      "inputs": [],
      "name": "withdraw",
      "outputs": [],
      "stateMutability": "nonpayable",
      "type": "function"
    },
    {
      "inputs": [
        {
          "internalType": "address",
          "name": "",
          "type": "address"
        }
      ],
      "name": "withdrawn",
      "outputs": [
        {
          "internalType": "bool",
          "name": "",
          "type": "bool"
        }
      ],
      "stateMutability": "view",
      "type": "function"
    }
  ],
  "bytecode": "0x60a06040523060805234801561001457600080fd5b506080516119e961004c60003960008181610878015281816108fd01528181610be101528181610c660152610d5001526119e96000f3fe6080604052600436106101295760003560e01c80635b9d73c6116100a5578063842e298111610074578063a26dbf2611610059578063a26dbf2614610378578063b5be93061461039c578063f2fde38b1461040757600080fd5b8063842e29811461032d5780638da5cb5b1461035a57600080fd5b80635b9d73c61461029c5780636007eeed146102c65780636ef61092146102e8578063715018a61461031857600080fd5b80632c23ec8e116100fc5780633ccfd60b116100e15780633ccfd60b146102515780634f1ef2861461026657806352d1902d1461027957600080fd5b80632c23ec8e146101ee5780633659cfe61461023157600080fd5b8063150b7a021461012e5780631c4b995a1461018457806324924bf7146101a65780632507190a146101d9575b600080fd5b34801561013a57600080fd5b5061014e61014936600461164e565b610427565b6040517fffffffff0000000000000000000000000000000000000000000000000000000090911681526020015b60405180910390f35b34801561019057600080fd5b506101a461019f366004611704565b6106c6565b005b3480156101b257600080fd5b5060fe546101c690610100900461ffff1681565b60405161ffff909116815260200161017b565b3480156101e557600080fd5b506101a4610857565b3480156101fa57600080fd5b5060fe546102199067010000000000000090046001600160a01b031681565b6040516001600160a01b03909116815260200161017b565b34801561023d57600080fd5b506101a461024c366004611749565b61086e565b34801561025d57600080fd5b506101a46109e9565b6101a461027436600461177c565b610bd7565b34801561028557600080fd5b5061028e610d43565b60405190815260200161017b565b3480156102a857600080fd5b5060fe546102b69060ff1681565b604051901515815260200161017b565b3480156102d257600080fd5b5060fe546101c6906301000000900461ffff1681565b3480156102f457600080fd5b506102b6610303366004611749565b60fd6020526000908152604090205460ff1681565b34801561032457600080fd5b506101a4610e08565b34801561033957600080fd5b5061034d610348366004611749565b610e1a565b60405161017b9190611840565b34801561036657600080fd5b506033546001600160a01b0316610219565b34801561038457600080fd5b5060fe546101c69065010000000000900461ffff1681565b3480156103a857600080fd5b506103e26103b7366004611884565b60fb602052600090815260409020805460018201546002909201546001600160a01b03909116919083565b604080516001600160a01b03909416845260208401929092529082015260600161017b565b34801561041357600080fd5b506101a4610422366004611749565b610e86565b6000610431610f13565b60fe5467010000000000000090046001600160a01b03163314610480576040517fb623f57e00000000000000000000000000000000000000000000000000000000815260040160405180910390fd5b60fe5460ff16156104bd576040517f12776a0700000000000000000000000000000000000000000000000000000000815260040160405180910390fd5b600084815260fb602052604090206001015415610506576040517f0ae3514d00000000000000000000000000000000000000000000000000000000815260040160405180910390fd5b6040517f6352211e0000000000000000000000000000000000000000000000000000000081526004810185905230903390636352211e90602401602060405180830381865afa15801561055d573d6000803e3d6000fd5b505050506040513d601f19601f82011682018060405250810190610581919061189d565b6001600160a01b0316146105c1576040517f6a27ec1300000000000000000000000000000000000000000000000000000000815260040160405180910390fd5b60fe54610100900461ffff16158015906105f1575060fe54610100810461ffff9081166501000000000090920416145b15610628576040517f6c8c8d2100000000000000000000000000000000000000000000000000000000815260040160405180910390fd5b60fe546001600160a01b038616600090815260fc6020526040902054630100000090910461ffff1611610687576040517f4c21e9a200000000000000000000000000000000000000000000000000000000815260040160405180910390fd5b6106918486610f6c565b507f150b7a02000000000000000000000000000000000000000000000000000000006106bd6001606555565b95945050505050565b600054610100900460ff16158080156106e65750600054600160ff909116105b806107005750303b158015610700575060005460ff166001145b6107775760405162461bcd60e51b815260206004820152602e60248201527f496e697469616c697a61626c653a20636f6e747261637420697320616c72656160448201527f647920696e697469616c697a656400000000000000000000000000000000000060648201526084015b60405180910390fd5b6000805460ff19166001179055801561079a576000805461ff0019166101001790555b60fe80547fffffffffff0000000000000000000000000000000000000000ffffffff0000ff166701000000000000006001600160a01b0387160262ffff0019161761010061ffff8616021790556107ef61106d565b60fe805466ffffffff0000ff1916630100000061ffff8516021790558015610851576000805461ff0019169055604051600181527f7f26b83ff96e1f2b6a682f133852f6798a09c465da95921460cefb38474024989060200160405180910390a15b50505050565b61085f6110e0565b60fe805460ff19166001179055565b6001600160a01b037f00000000000000000000000000000000000000000000000000000000000000001630036108fb5760405162461bcd60e51b815260206004820152602c60248201527f46756e6374696f6e206d7573742062652063616c6c6564207468726f7567682060448201526b19195b1959d85d1958d85b1b60a21b606482015260840161076e565b7f00000000000000000000000000000000000000000000000000000000000000006001600160a01b03166109567f360894a13ba1a3210667c828492db98dca3e2076cc3735a920a3ca505d382bbc546001600160a01b031690565b6001600160a01b0316146109c15760405162461bcd60e51b815260206004820152602c60248201527f46756e6374696f6e206d7573742062652063616c6c6564207468726f7567682060448201526b6163746976652070726f787960a01b606482015260840161076e565b6109ca8161113a565b604080516000808252602082019092526109e691839190611142565b50565b6109f1610f13565b60fe5460ff16610a2d576040517ff3e8a67c00000000000000000000000000000000000000000000000000000000815260040160405180910390fd5b33600090815260fd602052604090205460ff1615610a77576040517f6507689f00000000000000000000000000000000000000000000000000000000815260040160405180910390fd5b33600090815260fd60209081526040808320805460ff1916600117905560fc90915281205460fe5490916701000000000000009091046001600160a01b0316905b82811015610bc85733600090815260fc60205260408120805483908110610ae157610ae16118ba565b600091825260208083209091015480835260fb9091526040918290204360029091015590517f42842e0e000000000000000000000000000000000000000000000000000000008152306004820152336024820152604481018290529091506001600160a01b038416906342842e0e90606401600060405180830381600087803b158015610b6d57600080fd5b505af1158015610b81573d6000803e3d6000fd5b505060408051338152602081018590527f7084f5476618d8e60b11ef0d7d3f06914655adb8793e28ff7f018d4c76d505d5935001905060405180910390a150600101610ab8565b505050610bd56001606555565b565b6001600160a01b037f0000000000000000000000000000000000000000000000000000000000000000163003610c645760405162461bcd60e51b815260206004820152602c60248201527f46756e6374696f6e206d7573742062652063616c6c6564207468726f7567682060448201526b19195b1959d85d1958d85b1b60a21b606482015260840161076e565b7f00000000000000000000000000000000000000000000000000000000000000006001600160a01b0316610cbf7f360894a13ba1a3210667c828492db98dca3e2076cc3735a920a3ca505d382bbc546001600160a01b031690565b6001600160a01b031614610d2a5760405162461bcd60e51b815260206004820152602c60248201527f46756e6374696f6e206d7573742062652063616c6c6564207468726f7567682060448201526b6163746976652070726f787960a01b606482015260840161076e565b610d338261113a565b610d3f82826001611142565b5050565b6000306001600160a01b037f00000000000000000000000000000000000000000000000000000000000000001614610de35760405162461bcd60e51b815260206004820152603860248201527f555550535570677261646561626c653a206d757374206e6f742062652063616c60448201527f6c6564207468726f7567682064656c656761746563616c6c0000000000000000606482015260840161076e565b507f360894a13ba1a3210667c828492db98dca3e2076cc3735a920a3ca505d382bbc90565b610e106110e0565b610bd560006112e7565b6001600160a01b038116600090815260fc6020908152604091829020805483518184028101840190945280845260609392830182828015610e7a57602002820191906000526020600020905b815481526020019060010190808311610e66575b50505050509050919050565b610e8e6110e0565b6001600160a01b038116610f0a5760405162461bcd60e51b815260206004820152602660248201527f4f776e61626c653a206e6577206f776e657220697320746865207a65726f206160448201527f6464726573730000000000000000000000000000000000000000000000000000606482015260840161076e565b6109e6816112e7565b600260655403610f655760405162461bcd60e51b815260206004820152601f60248201527f5265656e7472616e637947756172643a207265656e7472616e742063616c6c00604482015260640161076e565b6002606555565b600160fe60058282829054906101000a900461ffff16610f8c91906118d0565b82546101009290920a61ffff81810219909316919092169190910217905550604080516060810182526001600160a01b03838116808352436020808501918252600085870181815289825260fb83528782209651875473ffffffffffffffffffffffffffffffffffffffff191696169590951786559151600186810191909155935160029095019490945581815260fc845284812080549384018155815283902090910185905582519081529081018490527f9e71bc8eea02a63969f509818f2dafb9254532904319f9dbda79b67bd34a5f3d910160405180910390a15050565b600054610100900460ff166110d85760405162461bcd60e51b815260206004820152602b60248201527f496e697469616c697a61626c653a20636f6e7472616374206973206e6f74206960448201526a6e697469616c697a696e6760a81b606482015260840161076e565b610bd5611346565b6033546001600160a01b03163314610bd55760405162461bcd60e51b815260206004820181905260248201527f4f776e61626c653a2063616c6c6572206973206e6f7420746865206f776e6572604482015260640161076e565b6109e66110e0565b7f4910fdfa16fed3260ed0e7147f7cc6da11a60208b5b9406d12a635614ffd91435460ff161561117a57611175836113ba565b505050565b826001600160a01b03166352d1902d6040518163ffffffff1660e01b8152600401602060405180830381865afa9250505080156111d4575060408051601f3d908101601f191682019092526111d191810190611900565b60015b6112465760405162461bcd60e51b815260206004820152602e60248201527f45524331393637557067726164653a206e657720696d706c656d656e7461746960448201527f6f6e206973206e6f742055555053000000000000000000000000000000000000606482015260840161076e565b7f360894a13ba1a3210667c828492db98dca3e2076cc3735a920a3ca505d382bbc81146112db5760405162461bcd60e51b815260206004820152602960248201527f45524331393637557067726164653a20756e737570706f727465642070726f7860448201527f6961626c65555549440000000000000000000000000000000000000000000000606482015260840161076e565b50611175838383611485565b603380546001600160a01b0383811673ffffffffffffffffffffffffffffffffffffffff19831681179093556040519116919082907f8be0079c531659141344cd1fd0a4f28419497f9722a3daafe3b4186f6b6457e090600090a35050565b600054610100900460ff166113b15760405162461bcd60e51b815260206004820152602b60248201527f496e697469616c697a61626c653a20636f6e7472616374206973206e6f74206960448201526a6e697469616c697a696e6760a81b606482015260840161076e565b610bd5336112e7565b6001600160a01b0381163b6114375760405162461bcd60e51b815260206004820152602d60248201527f455243313936373a206e657720696d706c656d656e746174696f6e206973206e60448201527f6f74206120636f6e747261637400000000000000000000000000000000000000606482015260840161076e565b7f360894a13ba1a3210667c828492db98dca3e2076cc3735a920a3ca505d382bbc805473ffffffffffffffffffffffffffffffffffffffff19166001600160a01b0392909216919091179055565b61148e836114aa565b60008251118061149b5750805b156111755761085183836114ea565b6114b3816113ba565b6040516001600160a01b038216907fbc7cd75a20ee27fd9adebab32041f755214dbc6bffa90cc0225b39da2e5c2d3b90600090a250565b606061150f838360405180606001604052806027815260200161198d60279139611516565b9392505050565b6060600080856001600160a01b031685604051611533919061193d565b600060405180830381855af49150503d806000811461156e576040519150601f19603f3d011682016040523d82523d6000602084013e611573565b606091505b50915091506115848683838761158e565b9695505050505050565b606083156115fd5782516000036115f6576001600160a01b0385163b6115f65760405162461bcd60e51b815260206004820152601d60248201527f416464726573733a2063616c6c20746f206e6f6e2d636f6e7472616374000000604482015260640161076e565b5081611607565b611607838361160f565b949350505050565b81511561161f5781518083602001fd5b8060405162461bcd60e51b815260040161076e9190611959565b6001600160a01b03811681146109e657600080fd5b60008060008060006080868803121561166657600080fd5b853561167181611639565b9450602086013561168181611639565b935060408601359250606086013567ffffffffffffffff808211156116a557600080fd5b818801915088601f8301126116b957600080fd5b8135818111156116c857600080fd5b8960208285010111156116da57600080fd5b9699959850939650602001949392505050565b803561ffff811681146116ff57600080fd5b919050565b60008060006060848603121561171957600080fd5b833561172481611639565b9250611732602085016116ed565b9150611740604085016116ed565b90509250925092565b60006020828403121561175b57600080fd5b813561150f81611639565b634e487b7160e01b600052604160045260246000fd5b6000806040838503121561178f57600080fd5b823561179a81611639565b9150602083013567ffffffffffffffff808211156117b757600080fd5b818501915085601f8301126117cb57600080fd5b8135818111156117dd576117dd611766565b604051601f8201601f19908116603f0116810190838211818310171561180557611805611766565b8160405282815288602084870101111561181e57600080fd5b8260208601602083013760006020848301015280955050505050509250929050565b6020808252825182820181905260009190848201906040850190845b818110156118785783518352928401929184019160010161185c565b50909695505050505050565b60006020828403121561189657600080fd5b5035919050565b6000602082840312156118af57600080fd5b815161150f81611639565b634e487b7160e01b600052603260045260246000fd5b61ffff8181168382160190808211156118f957634e487b7160e01b600052601160045260246000fd5b5092915050565b60006020828403121561191257600080fd5b5051919050565b60005b8381101561193457818101518382015260200161191c565b50506000910152565b6000825161194f818460208701611919565b9190910192915050565b6020815260008251806020840152611978816040850160208701611919565b601f01601f1916919091016040019291505056fe416464726573733a206c6f772d6c6576656c2064656c65676174652063616c6c206661696c6564a2646970667358221220094efb2a30d6ee53781be6008d305a52c632de5fabdf32d9fdc12977872c1cb764736f6c63430008130033",
  "linkReferences": {},
  "deployedLinkReferences": {}
}